{
  "contractName": "BeerTraceability",
  "abi": [
    {
      "inputs": [],
      "payable": false,
      "stateMutability": "nonpayable",
      "type": "constructor"
    },
    {
      "anonymous": false,
      "inputs": [
        {
          "indexed": false,
          "internalType": "uint256",
          "name": "_id",
          "type": "uint256"
        }
      ],
      "name": "AddBeer",
      "type": "event"
    },
    {
      "anonymous": false,
      "inputs": [
        {
          "indexed": false,
          "internalType": "uint256",
          "name": "beer_id",
          "type": "uint256"
        },
        {
          "indexed": false,
          "internalType": "uint256",
          "name": "step_id",
          "type": "uint256"
        }
      ],
      "name": "AddStep",
      "type": "event"
    },
    {
      "constant": true,
      "inputs": [],
      "name": "beerCount",
      "outputs": [
        {
          "internalType": "uint256",
          "name": "",
          "type": "uint256"
        }
      ],
      "payable": false,
      "stateMutability": "view",
      "type": "function"
    },
    {
      "constant": false,
      "inputs": [
        {
          "internalType": "uint256",
          "name": "_productionyear",
          "type": "uint256"
        },
        {
          "internalType": "string",
          "name": "_origin",
          "type": "string"
        },
        {
          "internalType": "string",
          "name": "_name",
          "type": "string"
        },
        {
          "internalType": "string",
          "name": "_brand",
          "type": "string"
        }
      ],
      "name": "addBeer",
      "outputs": [
        {
          "internalType": "uint256",
          "name": "",
          "type": "uint256"
        }
      ],
      "payable": false,
      "stateMutability": "nonpayable",
      "type": "function"
    },
    {
      "constant": false,
      "inputs": [
        {
          "internalType": "uint256",
          "name": "_id",
          "type": "uint256"
        },
        {
          "internalType": "string",
          "name": "_step",
          "type": "string"
        }
      ],
      "name": "addStep",
      "outputs": [],
      "payable": false,
      "stateMutability": "nonpayable",
      "type": "function"
    },
    {
      "constant": true,
      "inputs": [
        {
          "internalType": "uint256",
          "name": "_id",
          "type": "uint256"
        }
      ],
      "name": "getBeer",
      "outputs": [
        {
          "components": [
            {
              "internalType": "uint256",
              "name": "productionyear",
              "type": "uint256"
            },
            {
              "internalType": "string",
              "name": "origin",
              "type": "string"
            },
            {
              "internalType": "string",
              "name": "name",
              "type": "string"
            },
            {
              "internalType": "string",
              "name": "brand",
              "type": "string"
            },
            {
              "internalType": "string[]",
              "name": "steps",
              "type": "string[]"
            }
          ],
          "internalType": "struct BeerTraceability.Beer",
          "name": "",
          "type": "tuple"
        }
      ],
      "payable": false,
      "stateMutability": "view",
      "type": "function"
    },
    {
      "constant": true,
      "inputs": [],
      "name": "getBeers",
      "outputs": [
        {
          "components": [
            {
              "internalType": "uint256",
              "name": "productionyear",
              "type": "uint256"
            },
            {
              "internalType": "string",
              "name": "origin",
              "type": "string"
            },
            {
              "internalType": "string",
              "name": "name",
              "type": "string"
            },
            {
              "internalType": "string",
              "name": "brand",
              "type": "string"
            },
            {
              "internalType": "string[]",
              "name": "steps",
              "type": "string[]"
            }
          ],
          "internalType": "struct BeerTraceability.Beer[]",
          "name": "",
          "type": "tuple[]"
        }
      ],
      "payable": false,
      "stateMutability": "view",
      "type": "function"
    }
  ],
  "bytecode": "0x608060405234801561001057600080fd5b5060006001819055506111c3806100286000396000f3fe608060405234801561001057600080fd5b50600436106100575760003560e01c80630bdabe041461005c578063997cac98146100785780639a1d73a214610096578063c30e9fd4146100c6578063cc70e4b6146100e4575b600080fd5b61007660048036036100719190810190610c1f565b610114565b005b6100806101d6565b60405161008d9190610f9d565b60405180910390f35b6100b060048036036100ab9190810190610bf6565b61050e565b6040516100bd9190610fbf565b60405180910390f35b6100ce61081c565b6040516100db9190610fe1565b60405180910390f35b6100fe60048036036100f99190810190610c73565b610822565b60405161010b9190610fe1565b60405180910390f35b60608190507f801e330cdb44e41493dc83087f1b789d5f288c854a6bde5bd49b26d0eab988628360016000868154811061014a57fe5b9060005260206000209060050201600401805490500360405161016e929190610ffc565b60405180910390a16000838154811061018357fe5b90600052602060002090600502016004018190806001815401808255809150509060018203906000526020600020016000909192909190915090805190602001906101cf929190610965565b5050505050565b60606000805480602002602001604051908101604052809291908181526020016000905b8282101561050557838290600052602060002090600502016040518060a001604052908160008201548152602001600182018054600181600116156101000203166002900480601f0160208091040260200160405190810160405280929190818152602001828054600181600116156101000203166002900480156102c05780601f10610295576101008083540402835291602001916102c0565b820191906000526020600020905b8154815290600101906020018083116102a357829003601f168201915b50505050508152602001600282018054600181600116156101000203166002900480601f0160208091040260200160405190810160405280929190818152602001828054600181600116156101000203166002900480156103625780601f1061033757610100808354040283529160200191610362565b820191906000526020600020905b81548152906001019060200180831161034557829003601f168201915b50505050508152602001600382018054600181600116156101000203166002900480601f0160208091040260200160405190810160405280929190818152602001828054600181600116156101000203166002900480156104045780601f106103d957610100808354040283529160200191610404565b820191906000526020600020905b8154815290600101906020018083116103e757829003601f168201915b5050505050815260200160048201805480602002602001604051908101604052809291908181526020016000905b828210156104ee578382906000526020600020018054600181600116156101000203166002900480601f0160208091040260200160405190810160405280929190818152602001828054600181600116156101000203166002900480156104da5780601f106104af576101008083540402835291602001916104da565b820191906000526020600020905b8154815290600101906020018083116104bd57829003601f168201915b505050505081526020019060010190610432565b5050505081525050815260200190600101906101fa565b50505050905090565b6105166109e5565b6000828154811061052357fe5b90600052602060002090600502016040518060a001604052908160008201548152602001600182018054600181600116156101000203166002900480601f0160208091040260200160405190810160405280929190818152602001828054600181600116156101000203166002900480156105df5780601f106105b4576101008083540402835291602001916105df565b820191906000526020600020905b8154815290600101906020018083116105c257829003601f168201915b50505050508152602001600282018054600181600116156101000203166002900480601f0160208091040260200160405190810160405280929190818152602001828054600181600116156101000203166002900480156106815780601f1061065657610100808354040283529160200191610681565b820191906000526020600020905b81548152906001019060200180831161066457829003601f168201915b50505050508152602001600382018054600181600116156101000203166002900480601f0160208091040260200160405190810160405280929190818152602001828054600181600116156101000203166002900480156107235780601f106106f857610100808354040283529160200191610723565b820191906000526020600020905b81548152906001019060200180831161070657829003601f168201915b5050505050815260200160048201805480602002602001604051908101604052809291908181526020016000905b8282101561080d578382906000526020600020018054600181600116156101000203166002900480601f0160208091040260200160405190810160405280929190818152602001828054600181600116156101000203166002900480156107f95780601f106107ce576101008083540402835291602001916107f9565b820191906000526020600020905b8154815290600101906020018083116107dc57829003601f168201915b505050505081526020019060010190610751565b50505050815250509050919050565b60015481565b600061082c6109e5565b85816000018181525050848160200181905250838160400181905250828160600181905250600081908060018154018082558091505090600182039060005260206000209060050201600090919290919091506000820151816000015560208201518160010190805190602001906108a5929190610a14565b5060408201518160020190805190602001906108c2929190610a14565b5060608201518160030190805190602001906108df929190610a14565b5060808201518160040190805190602001906108fc929190610a94565b505050506001600081548092919060010191905055507f17d57ae807cd0b77f24cbe53bf88742268699b4c9d79a2a07a99f4c23a8056106001600080549050036040516109499190610fe1565b60405180910390a1600160008054905003915050949350505050565b828054600181600116156101000203166002900490600052602060002090601f016020900481019282601f106109a657805160ff19168380011785556109d4565b828001600101855582156109d4579182015b828111156109d35782518255916020019190600101906109b8565b5b5090506109e19190610af4565b5090565b6040518060a0016040528060008152602001606081526020016060815260200160608152602001606081525090565b828054600181600116156101000203166002900490600052602060002090601f016020900481019282601f10610a5557805160ff1916838001178555610a83565b82800160010185558215610a83579182015b82811115610a82578251825591602001919060010190610a67565b5b509050610a909190610af4565b5090565b828054828255906000526020600020908101928215610ae3579160200282015b82811115610ae2578251829080519060200190610ad2929190610a14565b5091602001919060010190610ab4565b5b509050610af09190610b19565b5090565b610b1691905b80821115610b12576000816000905550600101610afa565b5090565b90565b610b4291905b80821115610b3e5760008181610b359190610b45565b50600101610b1f565b5090565b90565b50805460018160011615610100020316600290046000825580601f10610b6b5750610b8a565b601f016020900490600052602060002090810190610b899190610af4565b5b50565b600082601f830112610b9e57600080fd5b8135610bb1610bac82611052565b611025565b91508082526020830160208301858383011115610bcd57600080fd5b610bd8838284611116565b50505092915050565b600081359050610bf081611169565b92915050565b600060208284031215610c0857600080fd5b6000610c1684828501610be1565b91505092915050565b60008060408385031215610c3257600080fd5b6000610c4085828601610be1565b925050602083013567ffffffffffffffff811115610c5d57600080fd5b610c6985828601610b8d565b9150509250929050565b60008060008060808587031215610c8957600080fd5b6000610c9787828801610be1565b945050602085013567ffffffffffffffff811115610cb457600080fd5b610cc087828801610b8d565b935050604085013567ffffffffffffffff811115610cdd57600080fd5b610ce987828801610b8d565b925050606085013567ffffffffffffffff811115610d0657600080fd5b610d1287828801610b8d565b91505092959194509250565b6000610d2a8383610e30565b905092915050565b6000610d3e8383610ef4565b905092915050565b6000610d518261109e565b610d5b81856110d9565b935083602082028501610d6d8561107e565b8060005b85811015610da95784840389528151610d8a8582610d1e565b9450610d95836110bf565b925060208a01995050600181019050610d71565b50829750879550505050505092915050565b6000610dc6826110a9565b610dd081856110ea565b935083602082028501610de28561108e565b8060005b85811015610e1e5784840389528151610dff8582610d32565b9450610e0a836110cc565b925060208a01995050600181019050610de6565b50829750879550505050505092915050565b6000610e3b826110b4565b610e4581856110fb565b9350610e55818560208601611125565b610e5e81611158565b840191505092915050565b600060a083016000830151610e816000860182610f7f565b5060208301518482036020860152610e998282610e30565b91505060408301518482036040860152610eb38282610e30565b91505060608301518482036060860152610ecd8282610e30565b91505060808301518482036080860152610ee78282610d46565b9150508091505092915050565b600060a083016000830151610f0c6000860182610f7f565b5060208301518482036020860152610f248282610e30565b91505060408301518482036040860152610f3e8282610e30565b91505060608301518482036060860152610f588282610e30565b91505060808301518482036080860152610f728282610d46565b9150508091505092915050565b610f888161110c565b82525050565b610f978161110c565b82525050565b60006020820190508181036000830152610fb78184610dbb565b905092915050565b60006020820190508181036000830152610fd98184610e69565b905092915050565b6000602082019050610ff66000830184610f8e565b92915050565b60006040820190506110116000830185610f8e565b61101e6020830184610f8e565b9392505050565b6000604051905081810181811067ffffffffffffffff8211171561104857600080fd5b8060405250919050565b600067ffffffffffffffff82111561106957600080fd5b601f19601f8301169050602081019050919050565b6000819050602082019050919050565b6000819050602082019050919050565b600081519050919050565b600081519050919050565b600081519050919050565b6000602082019050919050565b6000602082019050919050565b600082825260208201905092915050565b600082825260208201905092915050565b600082825260208201905092915050565b6000819050919050565b82818337600083830152505050565b60005b83811015611143578082015181840152602081019050611128565b83811115611152576000848401525b50505050565b6000601f19601f8301169050919050565b6111728161110c565b811461117d57600080fd5b5056fea365627a7a72315820811ebd8bdf8676bf81e7dfcd92f648751de946b079f4d2f45c4ab1d5ed8bbbb36c6578706572696d656e74616cf564736f6c63430005100040",
  "source": "pragma solidity >=0.4.22 <0.9.0;\r\npragma experimental ABIEncoderV2;\r\n\r\ncontract BeerTraceability{\r\n    struct Beer{\r\n        uint productionyear;\r\n        string origin;\r\n        string name;\r\n        string brand;\r\n        string[] steps;\r\n    }\r\n    Beer[] beers;\r\n    \r\n    uint public beerCount;\r\n\r\n    constructor() public {\r\n        beerCount = 0;\r\n    }\r\n\r\n    event AddBeer(uint _id);\r\n    function addBeer(uint _productionyear, string memory _origin, string memory _name, string memory _brand) public returns(uint){\r\n        Beer memory beer;\r\n        beer.productionyear = _productionyear;\r\n        beer.origin = _origin;\r\n        beer.name = _name;\r\n        beer.brand = _brand;\r\n        \r\n        beers.push(beer);\r\n\r\n        beerCount++;        \r\n        emit AddBeer(beers.length - 1);\r\n        return (beers.length - 1);\r\n    }\r\n    \r\n    event AddStep(uint beer_id, uint step_id);\r\n    function addStep(uint _id, string memory _step) public{\r\n        string memory step = _step;\r\n        emit AddStep(_id, beers[_id].steps.length - 1);\r\n        beers[_id].steps.push(step);\r\n    }\r\n    \r\n    function getBeer(uint _id) public view returns(Beer memory){\r\n        return (beers[_id]);\r\n    }\r\n\r\n    function getBeers() public view returns(Beer[] memory){\r\n        return beers;\r\n    }\r\n}",
  "sourcePath": "C:/Users/Wacb/Documents/KitGame/contracts/Beer.sol",
  "compiler": {
    "name": "solc",
    "version": "0.5.16+commit.9c3226ce.Emscripten.clang"
  },
  "schemaVersion": "3.3.4",
  "updatedAt": "2021-03-25T16:08:21.786Z",
  "networkType": "ethereum",
  "devdoc": {
    "methods": {}
  },
  "userdoc": {
    "methods": {}
  }
}